S01300006E657720647269766572732E73726563A8
S11300000C942A000C945A050C9483050C94AC05AA
S11300100C9447000C9447000C9447000C94A906D8
S11300200C94D2060C94FB060C945B060C942C06E0
S11300300C9447000C9447000C9447000C94470020
S11300400C943B030C9447000C9447000C94470019
S11300500C94470011241FBECFE5D8E0DEBFCDBF0E
S113006010E0A0E6B0E0E2E0F1E102C005900D92FC
S1130070AE38B107D9F720E0AEE8B0E001C01D9278
S1130080AC3AB207E1F70E9475020C947F080C9415
S113009000000F931F93CF93DF938C01C0E0D0E057
S11300A010C0F801A481B581AC0FBD1F828193817A
S11300B0FC01EC0FFD1F41E06C9180810E948E04D5
S11300C02196F801808190E0C817D90754F3DF9195
S11300D0CF911F910F910895FF920F931F93CF9388
S11300E0DF938C01F62EC0E0D0E020C0F801A0859B
S11300F0B185AC0FBD1F86819781FC01EC0FFD1FFC
S11301006C9180810E94240581110FC0F801228521
S113011033858F2D90E0880F991F880F991F820FC8
S1130120931FC80FD91F888108C02196F8018181C7
S113013090E0C817D907D4F28FEFDF91CF911F91C8
S11301400F91FF9008950F931F93CF93DF93EC01CA
S113015000E010E01CC0AC81BD81A00FB11FEA819A
S1130160FB81E00FF11F41E06C9180810E947103DB
S1130170AC81BD81A00FB11FEA81FB81E00FF11FAB
S113018041E06C9180810E948E040F5F1F4F888133
S113019090E008171907FCF200E010E00FC0A885F2
S11301A0B985A00FB11FEE81FF81E00FF11F42E07E
S11301B06C9180810E9471030F5F1F4F898190E0D1
S11301C00817190764F3DF91CF911F910F910895D8
S11301D0EF92FF920F931F93CF93DF938C01C0E0B4
S11301E0D0E024C0C8010E944900F801A481B5816F
S11301F0AC0FBD1F82819381FC01EC0FFD1F40E019
S11302006C9180810E948E04EC2E6C2FC8010E9498
S11302106C00F82EFFEF8F1741F06E2DC8010E947D
S11302206C008F3FD1F78F2D08C02196F801808193
S113023090E0C817D907B4F28FEFDF91CF911F91E7
S11302400F91FF90EF900895CF93C82F40E063E0A3
S113025085E00E948E0440E063E086E00E948E0404
S113026089EF90E00197F1F700C0000041E063E0FE
S113027087E00E948E0489EF90E00197F1F700C0B7
S113028000006C2F81E00E94140589EF90E0019733
S1130290F1F700C0000040E063E087E00E948E04B4
S11302A089EF90E00197F1F700C00000CF91089525
S11302B041E063E087E00E94710341E063E085E090
S11302C00E94710341E063E086E00E94710361E0F3
S11302D081E00E944A0488E30E9424018CE00E9489
S11302E0240181E00E9424010895CF93C82F41E0A6
S11302F063E085E00E948E0440E063E086E00E94B3
S11303008E0489EF90E00197F1F700C0000041E00E
S113031063E087E00E948E0489EF90E00197F1F793
S113032000C000006C2F81E00E94140589EF90E06A
S11303300197F1F700C0000040E063E087E00E940D
S11303408E0489EF90E00197F1F700C00000CF918F
S113035008950F931F93CF938C01C0E003C00E94B4
S11303607501CF5FF801EC0FF11D80818111F7CF8A
S1130370CF911F910F91089581E00E942401089567
S1130380BC0180E090E00E945E0720E030E040EA9B
S113039050E40E94EC0720E030E040E85AE30E9479
S11303A0EC0720E030E048EC52E40E94EC070895AA
S11303B043E060E080E00E940903089580E00E9429
S11303C01C030E942F030E94C0010E942F07862F46
S11303D00895CF93DF93EC0120E043E060E082E0F6
S11303E00E94D50541E0688189810E94710341E042
S11303F068818A810E947103DF91CF9108951F93D0
S1130400CF93DF93EC01162F442359F040E0688129
S113041089810E948E0441E068818A810E948E0451
S11304200AC041E0688189810E948E0440E06881AD
S11304308A810E948E04412F6B8188810E9410065C
S1130440DF91CF911F910895CF93DF93EC0140E0AA
S1130450688189810E948E0440E068818A810E94BB
S11304608E04DF91CF9108950E94BC0180E790E053
S11304700E94A90108950E94BC018EE790E00E94A9
S1130480A9012FE78AE196E0215080409040E1F7EE
S113049000C000000895CF93DF93EC01FB0180813D
S11304A091E0980F9083DE01A80FB11D4C938081D9
S11304B0FE01E80FF11D10820E94BC01CE010E94D2
S11304C0A901DF91CF910895CF93DF93EC01CB0184
S11304D00E94590888838F50803110F00E943B029B
S11304E00E943402DF91CF910895CF93DF93CDB76B
S11304F0DEB7E8970FB6F894DEBF0FBECDBF84E039
S113050089838A8380E090E020C0EDE0F0E0EC0F86
S1130510FD1FE80FF91F8083E1E1F0E0EC0FFD1F00
S1130520E80FF91F22E02083E5E1F0E0EC0FFD1F66
S1130530E80FF91F34E0380F3083E9E1F0E0EC0F05
S1130540FD1FE80FF91F2083019684309105ECF21A
S1130550CE010D969C838B83089698878F8304978E
S11305609E838D8308969A87898780E1E0E6F0E090
S1130570DE015D9601900D928A95E1F7CE014D96CC
S11305809C878B874C970E94A3001DA60E94D801CC
S11305900E9458010E94340283E08EA71FA682E0C5
S11305A088AB81E089ABCE018E960E94E9011FAA37
S11305B084E688AFCE018D960E94DE01182FCE010D
S11305C001960E94E8008F3F59F08D3349F0482F7F
S11305D0BE01695C7F4FCE01C2960E944B020AC0E5
S11305E08D3341F41FAABE016E5C7F4FCE01C896C5
S11305F00E94640288AD811738F440E064E6CE01BD
S11306008E960E94FF01D6CFCE018E960E942402C0
S1130610D1CF90E2899F90011124242B206C26B91C
S113062090B720E2629FB0011124692B60BF90E46F
S113063097B980938F000895CF93C82F40E060E06E
S11306400E94710387B1807E87B987B18C2B87B9EB
S113065086B1806486B9C0938E00CF91089580914D
S11306608F00811105C03699FECF84B195B10895EC
S113067084B195B108951F920F920FB60F92112471
S11306802F933F934F935F936F937F938F939F9396
S1130690AF93BF93EF93FF93E0919000F09191009B
S11306A0309771F084B195B1099586B1806186B9AE
S11306B080918F00813021F480918E000E941C0370
S11306C0FF91EF91BF91AF919F918F917F916F9126
S11306D05F914F913F912F910F900FBE0F901F90FC
S11306E018956130E1F138F0623009F46CC0633080
S11306F009F49DC00895413069F44AB321E030E023
S1130700B90102C0660F771F8A95E2F7CB01842BEB
S11307108ABB089541110EC04AB321E030E0B9010B
S113072002C0660F771F8A95E2F7CB018095842378
S11307308ABB0895423009F0ACC04BB321E030E0ED
S1130740B90102C0660F771F8A95E2F7CB01942F97
S1130750982B9BBB9AB3809589238ABB089541301B
S113076069F447B321E030E0B90102C0660F771F96
S11307708A95E2F7CB01842B87BB089541110EC003
S113078047B321E030E0B90102C0660F771F8A95B4
S1130790E2F7CB018095842387BB0895423009F0AA
S11307A078C048B321E030E0B90102C0660F771F7A
S11307B08A95E2F7CB01942F982B98BB97B3809539
S11307C0892387BB0895413069F444B321E030E0C4
S11307D0B90102C0660F771F8A95E2F7CB01842B1B
S11307E084BB089541110EC044B321E030E0B90147
S11307F002C0660F771F8A95E2F7CB0180958423A8
S113080084BB0895423009F044C045B321E030E090
S1130810B90102C0660F771F8A95E2F7CB01942FC6
S1130820982B95BB94B38095892384BB089541305C
S113083069F441B321E030E0B90102C0660F771FCB
S11308408A95E2F7CB01842B81BB089541110EC038
S113085041B321E030E0B90102C0660F771F8A95E9
S1130860E2F7CB018095842381BB0895423089F45B
S113087042B321E030E0B90102C0660F771F8A95C8
S1130880E2F7CB01942F982B92BB91B380958923E7
S113089081BB08958130A9F028F0823009F18330BA
S11308A071F10895613019F48FEF8ABB08956111D5
S11308B002C01ABA0895623081F58FEF8BBB1ABA61
S11308C00895613019F48FEF87BB0895611102C058
S11308D017BA0895623009F58FEF88BB17BA0895E7
S11308E0613019F48FEF84BB0895611102C014BA0A
S11308F00895623091F48FEF85BB14BA0895613086
S113090019F48FEF81BB0895611102C011BA0895E3
S1130910623019F48FEF82BB11BA0895613039F156
S113092038F0623009F442C0633009F45EC00895BF
S1130930413069F44BB321E030E0B90102C0660FE5
S1130940771F8A95E2F7CB01842B8BBB0895411165
S11309506AC04BB321E030E0B90102C0660F771FD3
S11309608A95E2F7CB01809584238BBB08954130AF
S113097069F448B321E030E0B90102C0660F771F83
S11309808A95E2F7CB01842B88BB089541114BC0B3
S113099048B321E030E0B90102C0660F771F8A95A1
S11309A0E2F7CB018095842388BB0895413069F434
S11309B045B321E030E0B90102C0660F771F8A9584
S11309C0E2F7CB01842B85BB089541112CC045B3BC
S11309D021E030E0B90102C0660F771F8A95E2F783
S11309E0CB018095842385BB0895413069F442B3DB
S11309F021E030E0B90102C0660F771F8A95E2F763
S1130A00CB01842B82BB089541110DC042B321E078
S1130A1030E0B90102C0660F771F8A95E2F7CB0177
S1130A208095842382BB0895813041F028F0823080
S1130A3039F0833039F008956BBB089568BB08958D
S1130A4065BB089562BB0895613089F028F0623077
S1130A50C9F0633011F12CC029B330E0A90102C000
S1130A60559547958A95E2F7CA018170089526B392
S1130A7030E0A90102C0559547958A95E2F7CA016D
S1130A808170089523B330E0A90102C055954795BC
S1130A908A95E2F7CA018170089520B330E0A90174
S1130AA002C0559547958A95E2F7CA018170089569
S1130AB080E008951F920F920FB60F9211242F9386
S1130AC03F934F935F936F937F938F939F93AF93D2
S1130AD0BF93EF93FF93E0919200F09193003097CE
S1130AE009F00995FF91EF91BF91AF919F918F917B
S1130AF07F916F915F914F913F912F910F900FBE16
S1130B000F901F9018951F920F920FB60F921124F9
S1130B102F933F934F935F936F937F938F939F9301
S1130B20AF93BF93EF93FF93E0919400F0919500FE
S1130B30309709F00995FF91EF91BF91AF919F9183
S1130B408F917F916F915F914F913F912F910F9072
S1130B500FBE0F901F9018951F920F920FB60F9211
S1130B6011242F933F934F935F936F937F938F93AE
S1130B709F93AF93BF93EF93FF93E0919600F0910F
S1130B809700309709F00995FF91EF91BF91AF91CC
S1130B909F918F917F916F915F914F913F912F9191
S1130BA00F900FBE0F901F9018951CBE22BF99B7CF
S1130BB09F7B99BF99B79F7799BFA82FA170B0E089
S1130BC00024B695A7950794B695A7950794BA2FD0
S1130BD0A02D81FBEE27E0F9F0E0EE0FFF1FEE0FF2
S1130BE0FF1FEE0FFF1F80E1689FB0011124EA2B65
S1130BF06E2B642B63BF4093A2002093A10010923C
S1130C009C00089599B721E030E002C0220F331F01
S1130C108A95E2F7292B29BF8FB780688FBF089583
S1130C201F93CF93DF93D82FC62F142F41E0682F43
S1130C308C2F0E947103D0939B00C0939A00109351
S1130C40980084E68CBF81E080939C000E94020699
S1130C50DF91CF911F9108951F920F920FB60F92BB
S1130C6011242F933F934F935F936F937F938F93AD
S1130C709F93AF93BF93EF93FF93E0919D00F09107
S1130C809E00309709F0099588B7816088BF8091EC
S1130C90A10082BFFF91EF91BF91AF919F918F917E
S1130CA07F916F915F914F913F912F910F900FBE64
S1130CB00F901F9018951F920F920FB60F92112448
S1130CC02F933F934F935F936F937F938F939F9350
S1130CD0AF93BF93EF93FF9380919C008823F1F02F
S1130CE0809199008F5F8093990090919800891763
S1130CF038F040E060919B0080919A000E948E043D
S1130D0080919900843688F041E060919B00809145
S1130D109A000E948E041092990007C0E0919F00EF
S1130D20F091A000309709F0099588B7826088BFD8
S1130D30FF91EF91BF91AF919F918F917F916F91AF
S1130D405F914F913F912F910F900FBE0F901F9085
S1130D5018951F920F920FB60F9211242F933F9361
S1130D604F935F936F937F938F939F93AF93BF93AF
S1130D70EF93FF93E091AA00F091AB00309709F054
S1130D800995FF91EF91BF91AF919F918F917F91C1
S1130D906F915F914F913F912F910F900FBE0F90E4
S1130DA01F9018951F920F920FB60F9211242F9334
S1130DB03F934F935F936F937F938F939F93AF93DF
S1130DC0BF93EF93FF93E091A800F091A9003097AF
S1130DD009F00995FF91EF91BF91AF919F918F9188
S1130DE07F916F915F914F913F912F910F900FBE23
S1130DF00F901F9018951F920F920FB60F92112407
S1130E002F933F934F935F936F937F938F939F930E
S1130E10AF93BF93EF93FF938091A5008F5F80936F
S1130E20A500E091A600F091A700309709F009957C
S1130E308091A3009091A4009DBD8CBDFF91EF9182
S1130E40BF91AF919F918F917F916F915F914F91DE
S1130E503F912F910F900FBE0F901F9018950E94F5
S1130E60CB0788F09F5798F0B92F9927B751B0F066
S1130E70E1F0660F771F881F991F1AF0BA95C9F71A
S1130E8014C0B13091F00E94E507B1E008950C94CC
S1130E90E507672F782F8827B85F39F0B93FCCF37F
S1130EA0869577956795B395D9F73EF49095809597
S1130EB0709561957F4F8F4F9F4F0895E89409C0B7
S1130EC097FB3EF490958095709561957F4F8F4F79
S1130ED09F4F9923A9F0F92F96E9BB279395F6958F
S1130EE0879577956795B795F111F8CFFAF4BB0F0D
S1130EF011F460FF1BC06F5F7F4F8F4F9F4F16C071
S1130F00882311F096E911C0772321F09EE8872FFA
S1130F10762F05C0662371F096E8862F70E060E0B6
S1130F202AF09A95660F771F881FDAF7880F96952F
S1130F30879597F9089597F99F6780E870E060E0D6
S1130F4008959FEF80EC089500240A94161617065E
S1130F5018060906089500240A94121613061406A6
S1130F6005060895092E0394000C11F4882352F009
S1130F70BB0F40F4BF2B11F460FF04C06F5F7F4FC1
S1130F808F4F9F4F089557FD9058440F551F59F0A8
S1130F905F3F71F04795880F97FB991F61F09F3F62
S1130FA079F087950895121613061406551FF2CF8B
S1130FB04695F1DF08C0161617061806991FF1CFDB
S1130FC086957105610508940895E894BB27662702
S1130FD07727CB0197F908950E94FF070C94B20775
S1130FE00E94A40738F00E94AB0720F0952311F06B
S1130FF00C949B070C94A10711240C94E6070E94FF
S1131000C30770F3959FC1F3950F50E0551F629F7E
S1131010F001729FBB27F00DB11D639FAA27F00D4D
S1131020B11DAA1F649F6627B00DA11D661F829F74
S11310302227B00DA11D621F739FB00DA11D621F59
S1131040839FA00D611D221F749F3327A00D611D76
S1131050231F849F600D211D822F762F6A2F112458
S11310609F5750409AF0F1F088234AF0EE0FFF1F8B
S1131070BB1F661F771F881F91505040A9F79E3FE2
S1131080510580F00C949B070C94E6075F3FE4F352
S1131090983ED4F3869577956795B795F795E79538
S11310A09F5FC1F7FE2B880F911D9695879597F941
S11310B00895FC0188279927E89421912032E9F3C7
S11310C0293010F02E30C8F32B3241F02D3239F490
S11310D0689404C00E947708820F911D21912053C7
S11310E02A30C0F31EF4909581959F4F08957AE0BD
S11310F0979F902D879F802D910D11240895F8942A
S1051100FFCF1B
S11311023738392F3435362A3132332D63303D2B7B
S1131112456E746572206465677265653A0064653C
S1111122677265652069732031353A333000F9
S9030000FC
